{
  "_format": "hh-sol-artifact-1",
  "contractName": "KYC",
  "sourceName": "contracts/Phase2.sol",
  "abi": [
    {
      "inputs": [],
      "stateMutability": "nonpayable",
      "type": "constructor"
    },
    {
      "anonymous": false,
      "inputs": [
        {
          "indexed": true,
          "internalType": "address",
          "name": "_bankAddress",
          "type": "address"
        },
        {
          "indexed": false,
          "internalType": "string",
          "name": "bankName",
          "type": "string"
        },
        {
          "indexed": false,
          "internalType": "string",
          "name": "regNumber",
          "type": "string"
        }
      ],
      "name": "addBankEvent",
      "type": "event"
    },
    {
      "anonymous": false,
      "inputs": [
        {
          "indexed": true,
          "internalType": "string",
          "name": "_userName",
          "type": "string"
        },
        {
          "indexed": false,
          "internalType": "string",
          "name": "customerData",
          "type": "string"
        },
        {
          "indexed": false,
          "internalType": "address",
          "name": "bank",
          "type": "address"
        }
      ],
      "name": "addCustomerEvent",
      "type": "event"
    },
    {
      "anonymous": false,
      "inputs": [
        {
          "indexed": true,
          "internalType": "string",
          "name": "_userName",
          "type": "string"
        },
        {
          "indexed": false,
          "internalType": "string",
          "name": "_customerData",
          "type": "string"
        },
        {
          "indexed": false,
          "internalType": "address",
          "name": "bankAddress",
          "type": "address"
        }
      ],
      "name": "addRequestEvent",
      "type": "event"
    },
    {
      "anonymous": false,
      "inputs": [
        {
          "indexed": true,
          "internalType": "string",
          "name": "_userName",
          "type": "string"
        },
        {
          "indexed": false,
          "internalType": "uint256",
          "name": "downVotes",
          "type": "uint256"
        }
      ],
      "name": "downVoteEvent",
      "type": "event"
    },
    {
      "anonymous": false,
      "inputs": [
        {
          "indexed": true,
          "internalType": "address",
          "name": "_bankAddress",
          "type": "address"
        },
        {
          "indexed": false,
          "internalType": "bool",
          "name": "changedVotingStatus",
          "type": "bool"
        }
      ],
      "name": "modifyBankVotingEvent",
      "type": "event"
    },
    {
      "anonymous": false,
      "inputs": [
        {
          "indexed": true,
          "internalType": "string",
          "name": "_userName",
          "type": "string"
        },
        {
          "indexed": false,
          "internalType": "string",
          "name": "customerData",
          "type": "string"
        },
        {
          "indexed": false,
          "internalType": "address",
          "name": "bank",
          "type": "address"
        }
      ],
      "name": "modifyCustomerDataEvent",
      "type": "event"
    },
    {
      "anonymous": false,
      "inputs": [
        {
          "indexed": true,
          "internalType": "address",
          "name": "_bankAddress",
          "type": "address"
        }
      ],
      "name": "removeBankEvent",
      "type": "event"
    },
    {
      "anonymous": false,
      "inputs": [
        {
          "indexed": true,
          "internalType": "string",
          "name": "_userName",
          "type": "string"
        }
      ],
      "name": "removeRequestEvent",
      "type": "event"
    },
    {
      "anonymous": false,
      "inputs": [
        {
          "indexed": true,
          "internalType": "address",
          "name": "_bankAddress",
          "type": "address"
        },
        {
          "indexed": false,
          "internalType": "string",
          "name": "bankName",
          "type": "string"
        },
        {
          "indexed": false,
          "internalType": "uint256",
          "name": "complaintsReported",
          "type": "uint256"
        }
      ],
      "name": "reportComplaintsEvent",
      "type": "event"
    },
    {
      "anonymous": false,
      "inputs": [
        {
          "indexed": true,
          "internalType": "string",
          "name": "_userName",
          "type": "string"
        },
        {
          "indexed": false,
          "internalType": "uint256",
          "name": "upVotes",
          "type": "uint256"
        }
      ],
      "name": "upVoteEvent",
      "type": "event"
    },
    {
      "inputs": [
        {
          "internalType": "string",
          "name": "_bankName",
          "type": "string"
        },
        {
          "internalType": "address",
          "name": "_bankAddress",
          "type": "address"
        },
        {
          "internalType": "string",
          "name": "_regNumber",
          "type": "string"
        }
      ],
      "name": "addBank",
      "outputs": [],
      "stateMutability": "nonpayable",
      "type": "function"
    },
    {
      "inputs": [
        {
          "internalType": "string",
          "name": "_userName",
          "type": "string"
        },
        {
          "internalType": "string",
          "name": "_customerData",
          "type": "string"
        }
      ],
      "name": "addCustomer",
      "outputs": [],
      "stateMutability": "nonpayable",
      "type": "function"
    },
    {
      "inputs": [
        {
          "internalType": "string",
          "name": "_userName",
          "type": "string"
        },
        {
          "internalType": "string",
          "name": "_customerData",
          "type": "string"
        }
      ],
      "name": "addRequest",
      "outputs": [],
      "stateMutability": "nonpayable",
      "type": "function"
    },
    {
      "inputs": [
        {
          "internalType": "string",
          "name": "_userName",
          "type": "string"
        }
      ],
      "name": "downVote",
      "outputs": [],
      "stateMutability": "nonpayable",
      "type": "function"
    },
    {
      "inputs": [
        {
          "internalType": "address",
          "name": "_bankAddress",
          "type": "address"
        }
      ],
      "name": "getComplaints",
      "outputs": [
        {
          "internalType": "uint256",
          "name": "",
          "type": "uint256"
        }
      ],
      "stateMutability": "view",
      "type": "function"
    },
    {
      "inputs": [
        {
          "internalType": "address",
          "name": "_bankAddress",
          "type": "address"
        },
        {
          "internalType": "bool",
          "name": "changedVotingStatus",
          "type": "bool"
        }
      ],
      "name": "modifyBankVoting",
      "outputs": [],
      "stateMutability": "nonpayable",
      "type": "function"
    },
    {
      "inputs": [
        {
          "internalType": "string",
          "name": "_userName",
          "type": "string"
        },
        {
          "internalType": "string",
          "name": "_customerData",
          "type": "string"
        }
      ],
      "name": "modifyCustomerData",
      "outputs": [],
      "stateMutability": "nonpayable",
      "type": "function"
    },
    {
      "inputs": [
        {
          "internalType": "address",
          "name": "_bankAddress",
          "type": "address"
        }
      ],
      "name": "removeBank",
      "outputs": [],
      "stateMutability": "nonpayable",
      "type": "function"
    },
    {
      "inputs": [
        {
          "internalType": "string",
          "name": "_userName",
          "type": "string"
        }
      ],
      "name": "removeRequest",
      "outputs": [],
      "stateMutability": "nonpayable",
      "type": "function"
    },
    {
      "inputs": [
        {
          "internalType": "address",
          "name": "_bankAddress",
          "type": "address"
        },
        {
          "internalType": "string",
          "name": "_bankName",
          "type": "string"
        }
      ],
      "name": "reportComplaints",
      "outputs": [],
      "stateMutability": "nonpayable",
      "type": "function"
    },
    {
      "inputs": [
        {
          "internalType": "string",
          "name": "_userName",
          "type": "string"
        }
      ],
      "name": "upVote",
      "outputs": [],
      "stateMutability": "nonpayable",
      "type": "function"
    },
    {
      "inputs": [
        {
          "internalType": "address",
          "name": "_bankAddress",
          "type": "address"
        }
      ],
      "name": "viewBankDetails",
      "outputs": [
        {
          "internalType": "string",
          "name": "",
          "type": "string"
        }
      ],
      "stateMutability": "view",
      "type": "function"
    },
    {
      "inputs": [
        {
          "internalType": "string",
          "name": "_userName",
          "type": "string"
        }
      ],
      "name": "viewCustomer",
      "outputs": [
        {
          "internalType": "string",
          "name": "",
          "type": "string"
        }
      ],
      "stateMutability": "view",
      "type": "function"
    }
  ],
  "bytecode": "0x608060405234801561001057600080fd5b50336000806101000a81548173ffffffffffffffffffffffffffffffffffffffff021916908373ffffffffffffffffffffffffffffffffffffffff1602179055506000600181905550612e2c806100686000396000f3fe608060405234801561001057600080fd5b50600436106100cf5760003560e01c80639649650c1161008c578063bb62eead11610066578063bb62eead146101f8578063ccfa8e7114610214578063d4b92c0b14610230578063de14044114610260576100cf565b80639649650c146101a4578063a1d9def2146101c0578063b9da4af8146101dc576100cf565b8063107925bb146100d45780633190abc014610104578063462ff503146101205780636cba00e61461013c5780638726a54c1461015857806388cc8d8d14610174575b600080fd5b6100ee60048036038101906100e991906121b9565b61027c565b6040516100fb919061286a565b60405180910390f35b61011e60048036038101906101199190612279565b610377565b005b61013a600480360381019061013591906121b9565b61063f565b005b610156600480360381019061015191906121b9565b6108bd565b005b610172600480360381019061016d9190612279565b6109fb565b005b61018e60048036038101906101899190612100565b610c19565b60405161019b919061286a565b60405180910390f35b6101be60048036038101906101b99190612100565b610d35565b005b6101da60048036038101906101d591906121b9565b610ecf565b005b6101f660048036038101906101f19190612279565b61114d565b005b610212600480360381019061020d9190612165565b6113d5565b005b61022e600480360381019061022991906121fa565b61160d565b005b61024a60048036038101906102459190612100565b611a08565b6040516102579190612ae3565b60405180910390f35b61027a60048036038101906102759190612129565b611a9c565b005b606061028782611bd7565b6102c6576040517f08c379a00000000000000000000000000000000000000000000000000000000081526004016102bd90612a83565b60405180910390fd5b6002826040516102d69190612821565b908152602001604051809103902060010180546102f290612c80565b80601f016020809104026020016040519081016040528092919081815260200182805461031e90612c80565b801561036b5780601f106103405761010080835404028352916020019161036b565b820191906000526020600020905b81548152906001019060200180831161034e57829003601f168201915b50505050509050919050565b61038033611c5f565b6103bf576040517f08c379a00000000000000000000000000000000000000000000000000000000081526004016103b690612983565b60405180910390fd5b6103c882611bd7565b15610408576040517f08c379a00000000000000000000000000000000000000000000000000000000081526004016103ff90612ac3565b60405180910390fd5b61041182611d08565b15610451576040517f08c379a000000000000000000000000000000000000000000000000000000000815260040161044890612963565b60405180910390fd5b816002836040516104629190612821565b90815260200160405180910390206000019080519060200190610486929190611f8b565b50806002836040516104989190612821565b908152602001604051809103902060010190805190602001906104bc929190611f8b565b50336002836040516104ce9190612821565b908152602001604051809103902060020160006101000a81548173ffffffffffffffffffffffffffffffffffffffff021916908373ffffffffffffffffffffffffffffffffffffffff160217905550600060028360405161052f9190612821565b90815260200160405180910390206004018190555060006002836040516105569190612821565b90815260200160405180910390206003018190555060028260405161057b9190612821565b90815260200160405180910390206000016040516105999190612838565b60405180910390207fcba61749f4fe732fd785cc9d55f3e11f69bdb98c0c74943b61febcee61e13a6e6002846040516105d29190612821565b90815260200160405180910390206001016002856040516105f39190612821565b908152602001604051809103902060020160009054906101000a900473ffffffffffffffffffffffffffffffffffffffff166040516106339291906128bc565b60405180910390a25050565b61064833611c5f565b610687576040517f08c379a000000000000000000000000000000000000000000000000000000000815260040161067e90612943565b60405180910390fd5b61069033611d8f565b6106cf576040517f08c379a00000000000000000000000000000000000000000000000000000000081526004016106c6906129a3565b60405180910390fd5b6106d881611bd7565b610717576040517f08c379a000000000000000000000000000000000000000000000000000000000815260040161070e90612a83565b60405180910390fd5b61072081611df6565b15610760576040517f08c379a000000000000000000000000000000000000000000000000000000000815260040161075790612a63565b60405180910390fd5b6002816040516107709190612821565b9081526020016040518091039020600301600081548092919061079290612cb2565b91905055506001600560003373ffffffffffffffffffffffffffffffffffffffff1673ffffffffffffffffffffffffffffffffffffffff168152602001908152602001600020826040516107e69190612821565b908152602001604051809103902060006101000a81548160ff02191690831515021790555061081481611e76565b6002826040516108249190612821565b908152602001604051809103902060020160146101000a81548160ff0219169083151502179055508060405161085a9190612821565b60405180910390207f543fadf83bec966fd477960e9e2f345af41eaf78e642fc01f908e3eab4f928596002836040516108939190612821565b9081526020016040518091039020600301546040516108b29190612ae3565b60405180910390a250565b6108c633611c5f565b610905576040517f08c379a00000000000000000000000000000000000000000000000000000000081526004016108fc906129c3565b60405180910390fd5b61090e81611d08565b1561094e576040517f08c379a0000000000000000000000000000000000000000000000000000000008152600401610945906129e3565b60405180910390fd5b60048160405161095e9190612821565b90815260200160405180910390206000808201600061097d9190612011565b6001820160006101000a81549073ffffffffffffffffffffffffffffffffffffffff02191690556002820160006109b49190612011565b5050806040516109c49190612821565b60405180910390207f688134a6a418e0715033e8830791aab7c11d5961251588c2299c98e5d36a118760405160405180910390a250565b610a0482611bd7565b610a43576040517f08c379a0000000000000000000000000000000000000000000000000000000008152600401610a3a90612a83565b60405180910390fd5b610a4c33611c5f565b610a8b576040517f08c379a0000000000000000000000000000000000000000000000000000000008152600401610a8290612a23565b60405180910390fd5b81600283604051610a9c9190612821565b90815260200160405180910390206000019080519060200190610ac0929190611f8b565b5080600283604051610ad29190612821565b90815260200160405180910390206001019080519060200190610af6929190611f8b565b506000600283604051610b099190612821565b9081526020016040518091039020600401819055506000600283604051610b309190612821565b908152602001604051809103902060030181905550600282604051610b559190612821565b9081526020016040518091039020600001604051610b739190612838565b60405180910390207f51785896a05ed83b04a3dfe06df47e9d014a674d49ef3a24b3de9e355fe1f623600284604051610bac9190612821565b9081526020016040518091039020600101600285604051610bcd9190612821565b908152602001604051809103902060020160009054906101000a900473ffffffffffffffffffffffffffffffffffffffff16604051610c0d9291906128bc565b60405180910390a25050565b6060610c2482611c5f565b610c63576040517f08c379a0000000000000000000000000000000000000000000000000000000008152600401610c5a90612943565b60405180910390fd5b600360008373ffffffffffffffffffffffffffffffffffffffff1673ffffffffffffffffffffffffffffffffffffffff1681526020019081526020016000206000018054610cb090612c80565b80601f0160208091040260200160405190810160405280929190818152602001828054610cdc90612c80565b8015610d295780601f10610cfe57610100808354040283529160200191610d29565b820191906000526020600020905b815481529060010190602001808311610d0c57829003601f168201915b50505050509050919050565b610d3d611f26565b610d7c576040517f08c379a0000000000000000000000000000000000000000000000000000000008152600401610d7390612a43565b60405180910390fd5b610d8581611c5f565b610dc4576040517f08c379a0000000000000000000000000000000000000000000000000000000008152600401610dbb90612943565b60405180910390fd5b600360008273ffffffffffffffffffffffffffffffffffffffff1673ffffffffffffffffffffffffffffffffffffffff16815260200190815260200160002060008082016000610e149190612011565b6001820160006101000a81549073ffffffffffffffffffffffffffffffffffffffff0219169055600282016000610e4b9190612011565b600382016000905560048201600090556005820160006101000a81549060ff0219169055505060016000815480929190610e8490612c56565b91905055508073ffffffffffffffffffffffffffffffffffffffff167fe375a3abcb6c16af989a909544e2738deaa9347875b8276189b4c4f9691af41660405160405180910390a250565b610ed833611c5f565b610f17576040517f08c379a0000000000000000000000000000000000000000000000000000000008152600401610f0e90612943565b60405180910390fd5b610f2033611d8f565b610f5f576040517f08c379a0000000000000000000000000000000000000000000000000000000008152600401610f56906129a3565b60405180910390fd5b610f6881611bd7565b610fa7576040517f08c379a0000000000000000000000000000000000000000000000000000000008152600401610f9e90612a83565b60405180910390fd5b610fb081611df6565b15610ff0576040517f08c379a0000000000000000000000000000000000000000000000000000000008152600401610fe790612a63565b60405180910390fd5b6002816040516110009190612821565b9081526020016040518091039020600401600081548092919061102290612cb2565b91905055506001600560003373ffffffffffffffffffffffffffffffffffffffff1673ffffffffffffffffffffffffffffffffffffffff168152602001908152602001600020826040516110769190612821565b908152602001604051809103902060006101000a81548160ff0219169083151502179055506110a481611e76565b6002826040516110b49190612821565b908152602001604051809103902060020160146101000a81548160ff021916908315150217905550806040516110ea9190612821565b60405180910390207f3b46849bc27d6cd8366e673ada47d87fe02761da1734b8e064b3808179369f7c6002836040516111239190612821565b9081526020016040518091039020600401546040516111429190612ae3565b60405180910390a250565b61115633611c5f565b611195576040517f08c379a000000000000000000000000000000000000000000000000000000000815260040161118c906129c3565b60405180910390fd5b61119e82611d08565b6111dd576040517f08c379a00000000000000000000000000000000000000000000000000000000081526004016111d490612aa3565b60405180910390fd5b816004836040516111ee9190612821565b90815260200160405180910390206000019080519060200190611212929190611f8b565b50336004836040516112249190612821565b908152602001604051809103902060010160006101000a81548173ffffffffffffffffffffffffffffffffffffffff021916908373ffffffffffffffffffffffffffffffffffffffff160217905550806004836040516112849190612821565b908152602001604051809103902060020190805190602001906112a8929190611f8b565b50600360003373ffffffffffffffffffffffffffffffffffffffff1673ffffffffffffffffffffffffffffffffffffffff16815260200190815260200160002060040160008154809291906112fc90612cb2565b91905055506004826040516113119190612821565b908152602001604051809103902060000160405161132f9190612838565b60405180910390207ff2e1c2c19fae1942bb28ecc1f4cfc2d1252092864c0c9f159e6586f04459a48a6004846040516113689190612821565b90815260200160405180910390206002016004856040516113899190612821565b908152602001604051809103902060010160009054906101000a900473ffffffffffffffffffffffffffffffffffffffff166040516113c99291906128bc565b60405180910390a25050565b6113de82611c5f565b61141d576040517f08c379a000000000000000000000000000000000000000000000000000000000815260040161141490612943565b60405180910390fd5b61142633611c5f565b611465576040517f08c379a000000000000000000000000000000000000000000000000000000000815260040161145c90612923565b60405180910390fd5b600360008373ffffffffffffffffffffffffffffffffffffffff1673ffffffffffffffffffffffffffffffffffffffff16815260200190815260200160002060030160008154809291906114b890612cb2565b919050555060036001546114cc9190612b9b565b600360008473ffffffffffffffffffffffffffffffffffffffff1673ffffffffffffffffffffffffffffffffffffffff168152602001908152602001600020600301541161151b57600161151e565b60005b600360008473ffffffffffffffffffffffffffffffffffffffff1673ffffffffffffffffffffffffffffffffffffffff16815260200190815260200160002060050160006101000a81548160ff0219169083151502179055508173ffffffffffffffffffffffffffffffffffffffff167f731ca921c3b8439465f6115b0ed9d288b8f84103fe1b95288723258b7b53980b82600360008673ffffffffffffffffffffffffffffffffffffffff1673ffffffffffffffffffffffffffffffffffffffff1681526020019081526020016000206003015460405161160192919061288c565b60405180910390a25050565b611615611f26565b611654576040517f08c379a000000000000000000000000000000000000000000000000000000000815260040161164b90612a43565b60405180910390fd5b61165d82611c5f565b1561169d576040517f08c379a000000000000000000000000000000000000000000000000000000000815260040161169490612a03565b60405180910390fd5b82600360008473ffffffffffffffffffffffffffffffffffffffff1673ffffffffffffffffffffffffffffffffffffffff16815260200190815260200160002060000190805190602001906116f3929190611f8b565b5081600360008473ffffffffffffffffffffffffffffffffffffffff1673ffffffffffffffffffffffffffffffffffffffff16815260200190815260200160002060010160006101000a81548173ffffffffffffffffffffffffffffffffffffffff021916908373ffffffffffffffffffffffffffffffffffffffff16021790555080600360008473ffffffffffffffffffffffffffffffffffffffff1673ffffffffffffffffffffffffffffffffffffffff16815260200190815260200160002060020190805190602001906117cb929190611f8b565b506000600360008473ffffffffffffffffffffffffffffffffffffffff1673ffffffffffffffffffffffffffffffffffffffff168152602001908152602001600020600301819055506000600360008473ffffffffffffffffffffffffffffffffffffffff1673ffffffffffffffffffffffffffffffffffffffff168152602001908152602001600020600401819055506001600360008473ffffffffffffffffffffffffffffffffffffffff1673ffffffffffffffffffffffffffffffffffffffff16815260200190815260200160002060050160006101000a81548160ff021916908315150217905550600160008154809291906118ca90612cb2565b9190505550600360008373ffffffffffffffffffffffffffffffffffffffff1673ffffffffffffffffffffffffffffffffffffffff16815260200190815260200160002060010160009054906101000a900473ffffffffffffffffffffffffffffffffffffffff1673ffffffffffffffffffffffffffffffffffffffff167fa19e9d5be052f51cedad836dbd56126689ae24d9b3385eccbd874cd133d9a307600360008573ffffffffffffffffffffffffffffffffffffffff1673ffffffffffffffffffffffffffffffffffffffff168152602001908152602001600020600001600360008673ffffffffffffffffffffffffffffffffffffffff1673ffffffffffffffffffffffffffffffffffffffff1681526020019081526020016000206002016040516119fb9291906128ec565b60405180910390a2505050565b6000611a1382611c5f565b611a52576040517f08c379a0000000000000000000000000000000000000000000000000000000008152600401611a4990612943565b60405180910390fd5b600360008373ffffffffffffffffffffffffffffffffffffffff1673ffffffffffffffffffffffffffffffffffffffff168152602001908152602001600020600301549050919050565b611aa4611f26565b611ae3576040517f08c379a0000000000000000000000000000000000000000000000000000000008152600401611ada90612a43565b60405180910390fd5b611aec82611c5f565b611b2b576040517f08c379a0000000000000000000000000000000000000000000000000000000008152600401611b2290612943565b60405180910390fd5b80600360008473ffffffffffffffffffffffffffffffffffffffff1673ffffffffffffffffffffffffffffffffffffffff16815260200190815260200160002060050160006101000a81548160ff0219169083151502179055508173ffffffffffffffffffffffffffffffffffffffff167ffc6cd39a4f86a91863fb0b3312d68b355a947fa3c3128d062504ef8ee1c5578282604051611bcb919061284f565b60405180910390a25050565b60008073ffffffffffffffffffffffffffffffffffffffff16600283604051611c009190612821565b908152602001604051809103902060020160009054906101000a900473ffffffffffffffffffffffffffffffffffffffff1673ffffffffffffffffffffffffffffffffffffffff161415611c55576000611c58565b60015b9050919050565b60008073ffffffffffffffffffffffffffffffffffffffff16600360008473ffffffffffffffffffffffffffffffffffffffff1673ffffffffffffffffffffffffffffffffffffffff16815260200190815260200160002060010160009054906101000a900473ffffffffffffffffffffffffffffffffffffffff1673ffffffffffffffffffffffffffffffffffffffff161415611cfe576000611d01565b60015b9050919050565b60008073ffffffffffffffffffffffffffffffffffffffff16600483604051611d319190612821565b908152602001604051809103902060010160009054906101000a900473ffffffffffffffffffffffffffffffffffffffff1673ffffffffffffffffffffffffffffffffffffffff1614611d85576000611d88565b60015b9050919050565b6000600360008373ffffffffffffffffffffffffffffffffffffffff1673ffffffffffffffffffffffffffffffffffffffff16815260200190815260200160002060050160009054906101000a900460ff16611dec576000611def565b60015b9050919050565b6000600560003373ffffffffffffffffffffffffffffffffffffffff1673ffffffffffffffffffffffffffffffffffffffff16815260200190815260200160002082604051611e459190612821565b908152602001604051809103902060009054906101000a900460ff16611e6c576000611e6f565b60015b9050919050565b6000600282604051611e889190612821565b908152602001604051809103902060030154600283604051611eaa9190612821565b9081526020016040518091039020600401541115611f1c57600660015410611f13576003600154611edb9190612b9b565b600283604051611eeb9190612821565b90815260200160405180910390206003015411611f09576001611f0c565b60005b9050611f21565b60019050611f21565b600090505b919050565b60008060009054906101000a900473ffffffffffffffffffffffffffffffffffffffff1673ffffffffffffffffffffffffffffffffffffffff163373ffffffffffffffffffffffffffffffffffffffff1614611f83576000611f86565b60015b905090565b828054611f9790612c80565b90600052602060002090601f016020900481019282611fb95760008555612000565b82601f10611fd257805160ff1916838001178555612000565b82800160010185558215612000579182015b82811115611fff578251825591602001919060010190611fe4565b5b50905061200d9190612051565b5090565b50805461201d90612c80565b6000825580601f1061202f575061204e565b601f01602090049060005260206000209081019061204d9190612051565b5b50565b5b8082111561206a576000816000905550600101612052565b5090565b600061208161207c84612b2f565b612afe565b90508281526020810184848401111561209957600080fd5b6120a4848285612c14565b509392505050565b6000813590506120bb81612dc8565b92915050565b6000813590506120d081612ddf565b92915050565b600082601f8301126120e757600080fd5b81356120f784826020860161206e565b91505092915050565b60006020828403121561211257600080fd5b6000612120848285016120ac565b91505092915050565b6000806040838503121561213c57600080fd5b600061214a858286016120ac565b925050602061215b858286016120c1565b9150509250929050565b6000806040838503121561217857600080fd5b6000612186858286016120ac565b925050602083013567ffffffffffffffff8111156121a357600080fd5b6121af858286016120d6565b9150509250929050565b6000602082840312156121cb57600080fd5b600082013567ffffffffffffffff8111156121e557600080fd5b6121f1848285016120d6565b91505092915050565b60008060006060848603121561220f57600080fd5b600084013567ffffffffffffffff81111561222957600080fd5b612235868287016120d6565b9350506020612246868287016120ac565b925050604084013567ffffffffffffffff81111561226357600080fd5b61226f868287016120d6565b9150509250925092565b6000806040838503121561228c57600080fd5b600083013567ffffffffffffffff8111156122a657600080fd5b6122b2858286016120d6565b925050602083013567ffffffffffffffff8111156122cf57600080fd5b6122db858286016120d6565b9150509250929050565b6122ee81612bcc565b82525050565b6122fd81612bde565b82525050565b600061230e82612b74565b6123188185612b7f565b9350612328818560208601612c23565b61233181612db7565b840191505092915050565b600061234782612b74565b6123518185612b90565b9350612361818560208601612c23565b80840191505092915050565b6000815461237a81612c80565b6123848186612b7f565b9450600182166000811461239f57600181146123b1576123e4565b60ff19831686526020860193506123e4565b6123ba85612b5f565b60005b838110156123dc578154818901526001820191506020810190506123bd565b808801955050505b50505092915050565b600081546123fa81612c80565b6124048186612b90565b9450600182166000811461241f576001811461243057612463565b60ff19831686528186019350612463565b61243985612b5f565b60005b8381101561245b5781548189015260018201915060208101905061243c565b838801955050505b50505092915050565b6000612479602c83612b7f565b91507f4f6e6c792056616c69642042616e6b2063616e2052656769737465722074686560008301527f20436f6d706c61696e74732e00000000000000000000000000000000000000006020830152604082019050919050565b60006124df601383612b7f565b91507f42616e6b20446f6573204e6f74204578697374000000000000000000000000006000830152602082019050919050565b600061251f601583612b7f565b91507f4b59432052657175657374206e6f7420666f756e6400000000000000000000006000830152602082019050919050565b600061255f602083612b7f565b91507f56616c69642042616e6b2043616e2041646420437573746f6d657220446174616000830152602082019050919050565b600061259f601983612b7f565b91507f4f6e6c792056616c69642042616e6b2063616e20566f74652e000000000000006000830152602082019050919050565b60006125df601f83612b7f565b91507f4f6e6c792056616c69642042616e6b2063616e204164642052657175657374006000830152602082019050919050565b600061261f600d83612b7f565b91507f4b5943204e6f7420466f756e64000000000000000000000000000000000000006000830152602082019050919050565b600061265f601283612b7f565b91507f42616e6b20416c726561647920457869737400000000000000000000000000006000830152602082019050919050565b600061269f601f83612b7f565b91507f4f6e6c792056616c69642042616e6b2043616e204d6f646966792044617461006000830152602082019050919050565b60006126df601283612b7f565b91507f4f6e6c792041646d696e204163636573732100000000000000000000000000006000830152602082019050919050565b600061271f601683612b7f565b91507f596f75204861766520416c726561647920566f746564000000000000000000006000830152602082019050919050565b600061275f601883612b7f565b91507f437573746f6d657220646f6573206e6f742045786973742e00000000000000006000830152602082019050919050565b600061279f601883612b7f565b91507f4b5943205265717565737420416c726561647920446f6e6500000000000000006000830152602082019050919050565b60006127df601683612b7f565b91507f437573746f6d657220416c7265616479204578697374000000000000000000006000830152602082019050919050565b61281b81612c0a565b82525050565b600061282d828461233c565b915081905092915050565b600061284482846123ed565b915081905092915050565b600060208201905061286460008301846122f4565b92915050565b600060208201905081810360008301526128848184612303565b905092915050565b600060408201905081810360008301526128a68185612303565b90506128b56020830184612812565b9392505050565b600060408201905081810360008301526128d6818561236d565b90506128e560208301846122e5565b9392505050565b60006040820190508181036000830152612906818561236d565b9050818103602083015261291a818461236d565b90509392505050565b6000602082019050818103600083015261293c8161246c565b9050919050565b6000602082019050818103600083015261295c816124d2565b9050919050565b6000602082019050818103600083015261297c81612512565b9050919050565b6000602082019050818103600083015261299c81612552565b9050919050565b600060208201905081810360008301526129bc81612592565b9050919050565b600060208201905081810360008301526129dc816125d2565b9050919050565b600060208201905081810360008301526129fc81612612565b9050919050565b60006020820190508181036000830152612a1c81612652565b9050919050565b60006020820190508181036000830152612a3c81612692565b9050919050565b60006020820190508181036000830152612a5c816126d2565b9050919050565b60006020820190508181036000830152612a7c81612712565b9050919050565b60006020820190508181036000830152612a9c81612752565b9050919050565b60006020820190508181036000830152612abc81612792565b9050919050565b60006020820190508181036000830152612adc816127d2565b9050919050565b6000602082019050612af86000830184612812565b92915050565b6000604051905081810181811067ffffffffffffffff82111715612b2557612b24612d88565b5b8060405250919050565b600067ffffffffffffffff821115612b4a57612b49612d88565b5b601f19601f8301169050602081019050919050565b60008190508160005260206000209050919050565b600081519050919050565b600082825260208201905092915050565b600081905092915050565b6000612ba682612c0a565b9150612bb183612c0a565b925082612bc157612bc0612d2a565b5b828204905092915050565b6000612bd782612bea565b9050919050565b60008115159050919050565b600073ffffffffffffffffffffffffffffffffffffffff82169050919050565b6000819050919050565b82818337600083830152505050565b60005b83811015612c41578082015181840152602081019050612c26565b83811115612c50576000848401525b50505050565b6000612c6182612c0a565b91506000821415612c7557612c74612cfb565b5b600182039050919050565b60006002820490506001821680612c9857607f821691505b60208210811415612cac57612cab612d59565b5b50919050565b6000612cbd82612c0a565b91507fffffffffffffffffffffffffffffffffffffffffffffffffffffffffffffffff821415612cf057612cef612cfb565b5b600182019050919050565b7f4e487b7100000000000000000000000000000000000000000000000000000000600052601160045260246000fd5b7f4e487b7100000000000000000000000000000000000000000000000000000000600052601260045260246000fd5b7f4e487b7100000000000000000000000000000000000000000000000000000000600052602260045260246000fd5b7f4e487b7100000000000000000000000000000000000000000000000000000000600052604160045260246000fd5b6000601f19601f8301169050919050565b612dd181612bcc565b8114612ddc57600080fd5b50565b612de881612bde565b8114612df357600080fd5b5056fea2646970667358221220621d954a5b5b0a53c4db041905343163b024c1c406704328be8fb2cf4714d47264736f6c63430008000033",
  "linkReferences": {},
  "deployedLinkReferences": {}
}